:100000000C9434000C9451000C9451000C94510049
:100010000C9451000C9451000C9451000C9451001C
:100020000C9451000C9451000C9451000C94AA01B2
:100030000C9451000C9451000C9451000C945100FC
:100040000C9451000C9451000C9451000C945100EC
:100050000C9451000C9451000C9451000C945100DC
:100060000C9451000C94510011241FBECFEFD8E026
:10007000DEBFCDBF11E0A0E0B1E0ECEBF4E002C0E8
:1000800005900D92AA30B107D9F722E0AAE0B1E0BD
:1000900001C01D92AF34B207E1F70E945B000C94DF
:1000A0005C020C9400002FEF3FEFFC0133832283AE
:1000B0003183208308950E947D007894CCE9D1E0BB
:1000C00011E06BE971E08AEA0E943C022FEF80E7C1
:1000D00092E0215080409040E1F700C000008BE9A1
:1000E00091E00E944502882361F38BE991E00E9430
:1000F0004D02843031F71883E4CFCF93DF938AE049
:1001000091E00E9453008EE291E00E94530082E54C
:1001100091E00E94530086E791E00E94530081E045
:1001200080939A0132E03093A60123E02093A70147
:1001300080939B0194E09093D30145E04093D401D8
:100140003093C80136E03093000237E0309301026B
:100150002093F50110922D0280932E02909322029B
:10016000C1E0D0E001C02196CE0101978230910517
:1001700079F01CF4019739F01AC08330910569F0C9
:10018000049781F014C08BE991E00E94F901EBCF54
:1001900088EC91E00E94F901E6CF85EF91E00E94A2
:1001A000F90108C082E292E00E94F90103C0C43064
:1001B000D105CCF2DF91CF910895FC018181882394
:1001C00019F0239A2B9A01C02B98808580FF5DC07F
:1001D00084818F5F84838481843009F056C01482C7
:1001E0008681811112C04BB1848521E030E0B901D4
:1001F00002C0660F771F8A95E2F7CB0180958423B2
:100200008BB986818F5F868339C08681893031F1D1
:10021000838180FF0EC04BB1848521E030E0B901BD
:1002200002C0660F771F8A95E2F7CB01842B8BB94A
:100230000EC04BB1848521E030E0B90102C0660FE9
:10024000771F8A95E2F7CB01809584238BB986814D
:100250008F5F868383818695838310C04BB18485AD
:1002600021E030E0B90102C0660F771F8A95E2F7FE
:10027000CB01842B8BB986818F5F868386818A3000
:1002800020F0168280858E7F8087808581FD11C059
:1002900089B1238590E002C0959587952A95E2F76C
:1002A00080FD57C082E085838085826080871782C9
:1002B000089585818F5F85838581843009F049C0E9
:1002C00015828781811113C089B1238590E002C016
:1002D000959587952A95E2F780FD05C087818F5F08
:1002E00087831282089580858D6F80870895878126
:1002F0008930B0F489B1238590E002C09595879547
:100300002A95E2F780FF08C09281A781B0E0A05053
:10031000BF4F8C91890F828387818F5F8783089578
:100320008781893021F487818F5F87830895808555
:100330008D7F8087828591E0980F92879281DF017F
:10034000A80FB11D1D969C9382818285803209F48D
:10035000128608951F920F920FB60F9211242F93B9
:100360003F934F935F936F937F938F939F93AF933D
:10037000BF93EF93FF9380919A01823071F018F44C
:10038000813031F018C0833069F0843081F013C0BF
:100390008BE991E00E94DD000EC088EC91E00E94A4
:1003A000DD0009C085EF91E00E94DD0004C082E21B
:1003B00092E00E94DD0080919A01843021F481E076
:1003C00080939A0105C080919A018F5F80939A0172
:1003D000FF91EF91BF91AF919F918F917F916F911D
:1003E0005F914F913F912F910F900FBE0F901F90F3
:1003F0001895CF93DF93FC01128611861182A1E834
:10040000B0E01C928C9181608C938C9188608C936D
:1004100010928000C9E8D0E083E08883A8E8B0E0CB
:1004200081E48C93188280ED8C93AFE6B0E08C91E0
:1004300082608C931086248581E090E0AC0102C03C
:10044000440F551F2A95E2F74AB94BB12485BC01E8
:1004500002C0660F771F2A95E2F79B01242B2BB968
:100460002BB1338502C0880F991F3A95E2F7822B92
:100470008BB9DF91CF910895FB01908590FDFDCF61
:1004800083838085816080870895FC012185928522
:1004900081E0291301C080E00895FC01818591E08D
:1004A000980F9187DF01A80FB11D1D968C91918542
:0C04B000903209F411860895F894FFCFF3
:0A04BC000001020408102040800037
:00000001FF
