S0110000536F667455617274322E73726563A9
S11300000C9434000C9451000C9451000C94510045
S11300100C9451000C9451000C9451000C94510018
S11300200C9451000C9451000C9451000C946A01EE
S11300300C9451000C9451000C9451000C945100F8
S11300400C9451000C9451000C9451000C945100E8
S11300500C9451000C9451000C9451000C945100D8
S11300600C9451000C94510011241FBECFEFD8E022
S1130070DEBFCDBF11E0A0E0B1E0E2EFF3E002C0EB
S113008005900D92AA30B107D9F721E0AAE0B1E0BA
S113009001C01D92A03CB207E1F70E9453000C94EA
S11300A0F7010C9400000E946000CDE0D1E011E063
S11300B08CE091E00E94EF018823D1F31883F8CFFC
S11300C0CF93DF9381E080930A0132E030931701EC
S11300D023E02093180180930C0194E09093440151
S11300E045E0409345013093390136E03093710186
S11300F037E0309372012093660110929E01809341
S11301009F0190939301C1E0D0E001C02196CE01FC
S113011001978230910579F01CF4019739F01AC0E7
S11301208330910569F0049781F014C08CE091E06C
S11301300E94B801EBCF89E391E00E94B801E6CFB9
S113014086E691E00E94B80108C083E991E00E942C
S1130150B80103C0C430D105CCF2DF91CF9108952A
S1130160FC018181882319F0239A2B9A01C02B98D2
S1130170808580FF55C084818F5F843011F0848333
S11301804FC014828681811110C02BB181E090E0B0
S1130190048402C0880F991F0A94E2F78095822391
S11301A08BB986818F5F868334C0893019F183814E
S11301B080FF0DC04BB121E030E0C901048402C0CE
S11301C0880F991F0A94E2F7842B8BB90CC02BB1CA
S11301D081E090E0048402C0880F991F0A94E2F73A
S11301E0809582238BB986818F5F868383818695F0
S11301F083830FC04BB121E030E0C901048402C005
S1130200880F991F0A94E2F7842B8BB986818F5F3C
S1130210868386818A3020F0168280858E7F80874F
S1130220208521FD10C089B190E0038402C095951A
S113023087950A94E2F780FD4CC082E085832260B2
S113024020871782089585818F5F843011F085831C
S1130250089515823781311111C089B190E003846A
S113026002C0959587950A94E2F780FD04C081E069
S11302708783128208952D6F208708953930A8F45A
S113028089B190E0038402C0959587950A94E2F7BA
S113029080FF08C0A32FB0E0A050BF4F92818C9183
S11302A0890F82833F5F37830895393019F48AE0D8
S11302B0878308952D7F2087928581E0890F828727
S11302C0DF01A90FB11D92811D969C93803209F420
S11302D0128608951F920F920FB60F9211242F9336
S11302E03F934F935F936F937F938F939F93AF93BA
S11302F0BF93CF93EF93FF93C0910B01C23071F082
S113030018F4C13031F019C0C33069F0C43081F041
S113031014C08CE091E00E94B00015C089E391E024
S11303200E94B00010C086E691E00E94B0000BC0AD
S113033083E991E00E94B00002C0C43021F481E05E
S113034080930B0103C0CF5FC0930B01FF91EF912A
S1130350CF91BF91AF919F918F917F916F915F9159
S11303604F913F912F910F900FBE0F901F901895B2
S1130370FC01128611861182A1E8B0E01C928C91D6
S113038081608C938C9188608C931092800083E0C0
S11303908093890081E480938800AFE6B0E08C917B
S11303A082608C93108681E090E09C01048402C0FA
S11303B0220F331F0A94E2F72AB99C01048402C075
S11303C0220F331F0A94E2F72BB92BB1038402C026
S11303D0880F991F0A94E2F7822B8BB90895FC01C8
S11303E081E021859285291301C080E00895F89465
S10503F0FFCF39
S10D03F200010204081020408000FE
S9030000FC
