S0100000536F6674556172742E73726563DC
S11300000C9434000C9451000C9451000C94510045
S11300100C9451000C9451000C9451000C94510018
S11300200C9451000C9451000C9451000C94530006
S11300300C9451000C9451000C9451000C945100F8
S11300400C9451000C9451000C9451000C945100E8
S11300500C9451000C9451000C9451000C945100D8
S11300600C9451000C94510011241FBECFEFD8E022
S1130070DEBFCDBF11E0A0E0B1E0EEE9F3E002C0E5
S113008005900D92AA30B107D9F721E0AAE0B1E0BA
S113009001C01D92A933B207E1F70E94A0010C949C
S11300A0CD010C9400001F920F920FB60F921124F1
S11300B02F938F939F93AF93BF93EF93FF93CF931C
S11300C0DF93CDB7DEB72997DEBFCDBF8091330173
S11300D0882319F0239A2B9A01C02B9880912C0124
S11300E080FF3AC0809130018F5F843019F0809393
S11300F0300132C01092300180912E01811107C06D
S11301005B9880912E018F5F80932E011AC08930F5
S113011091F08091310180FF02C05B9A01C05B982D
S113012080912E018F5F80932E01809131018695FD
S11301308093310106C05B9A80912E018F5F80937A
S11301402E0180912E018A3038F010922E01809178
S11301502C018E7F80932C0189E0E0E0F1E0DE0148
S1130160119601900D928A95E1F780912C0181FD01
S11301700BC04A994DC092E090932F018260809306
S11301802C0110922D0144C090912F019F5F943057
S113019019F090932F013CC010922F0190912D01E2
S11301A091110CC04A9906C081E080932D011092F0
S11301B032012EC08D6F80932C012AC0993078F4BF
S11301C04A9B09C0FE01E90FF11D20913201818192
S11301D0820F809332019F5F90932D0119C0993053
S11301E021F48AE080932D0113C08D7F80932C012C
S11301F0E0912A0181E08E0F80932A01F0E0E65F0E
S1130200FE4F909132019083803211F410922A01B2
S1130210809138018F5F8093380180913801803C50
S113022071F510923801809137018F5F8093370107
S113023080913701883209F45F9A809137018233C3
S1130240F1F45F9810923701809136018F5F8093AB
S11302503601809136018C3391F4109236018091ED
S113026035018F5F80933501809135018C3339F4EA
S113027010923501809134018F5F80933401299667
S11302800FB6F894DEBF0FBECDBFDF91CF91FF91C3
S1130290EF91BF91AF919F918F912F910F900FBECE
S11302A00F901F90189510923801109237011092F8
S11302B036011092350110923401E1E8F0E0108229
S11302C08081816080838081886080831092800037
S11302D083E08093890081E480938800EFE6F0E076
S11302E080818260808310922B0110922A011092E7
S11302F02C0188E08AB98BB95A9A089590912C01FF
S113030090FDFFCF80933101916090932C0108956B
S113031081E020912B0190912A01291301C080E0F2
S11303200895E0912B0191E09E0F90932B01F0E052
S1130330E65FFE4F8081903211F410922B010895F4
S11303400E945301249A15B81C9A78942FEF89E6D9
S113035098E1215080409040E1F700C00000229ACB
S1130360C1E080E30E947E012A980E9488018823CC
S113037081F00E949101C09333018F5F0E947E013E
S11303802FEF81EE94E0215080409040E1F700C0CF
S111039000002A9A10923301E4CFF894FFCFB4
S10D039E0001020408102040800052
S9030000FC
